{
  "contractName": "Wallet",
  "abi": [
    {
      "inputs": [
        {
          "internalType": "address[]",
          "name": "_approvers",
          "type": "address[]"
        },
        {
          "internalType": "uint256",
          "name": "_quorum",
          "type": "uint256"
        }
      ],
      "stateMutability": "nonpayable",
      "type": "constructor"
    },
    {
      "inputs": [
        {
          "internalType": "address",
          "name": "",
          "type": "address"
        },
        {
          "internalType": "uint256",
          "name": "",
          "type": "uint256"
        }
      ],
      "name": "approvals",
      "outputs": [
        {
          "internalType": "bool",
          "name": "",
          "type": "bool"
        }
      ],
      "stateMutability": "view",
      "type": "function",
      "constant": true
    },
    {
      "inputs": [
        {
          "internalType": "uint256",
          "name": "",
          "type": "uint256"
        }
      ],
      "name": "approvers",
      "outputs": [
        {
          "internalType": "address",
          "name": "",
          "type": "address"
        }
      ],
      "stateMutability": "view",
      "type": "function",
      "constant": true
    },
    {
      "inputs": [],
      "name": "quorum",
      "outputs": [
        {
          "internalType": "uint256",
          "name": "",
          "type": "uint256"
        }
      ],
      "stateMutability": "view",
      "type": "function",
      "constant": true
    },
    {
      "inputs": [
        {
          "internalType": "uint256",
          "name": "",
          "type": "uint256"
        }
      ],
      "name": "transfers",
      "outputs": [
        {
          "internalType": "uint256",
          "name": "id",
          "type": "uint256"
        },
        {
          "internalType": "uint256",
          "name": "amount",
          "type": "uint256"
        },
        {
          "internalType": "address payable",
          "name": "to",
          "type": "address"
        },
        {
          "internalType": "uint256",
          "name": "approvals",
          "type": "uint256"
        },
        {
          "internalType": "bool",
          "name": "sent",
          "type": "bool"
        }
      ],
      "stateMutability": "view",
      "type": "function",
      "constant": true
    },
    {
      "stateMutability": "payable",
      "type": "receive",
      "payable": true
    },
    {
      "inputs": [],
      "name": "addEther",
      "outputs": [],
      "stateMutability": "payable",
      "type": "function",
      "payable": true
    },
    {
      "inputs": [],
      "name": "getApprovers",
      "outputs": [
        {
          "internalType": "address[]",
          "name": "",
          "type": "address[]"
        }
      ],
      "stateMutability": "view",
      "type": "function",
      "constant": true
    },
    {
      "inputs": [],
      "name": "getTransfers",
      "outputs": [
        {
          "components": [
            {
              "internalType": "uint256",
              "name": "id",
              "type": "uint256"
            },
            {
              "internalType": "uint256",
              "name": "amount",
              "type": "uint256"
            },
            {
              "internalType": "address payable",
              "name": "to",
              "type": "address"
            },
            {
              "internalType": "uint256",
              "name": "approvals",
              "type": "uint256"
            },
            {
              "internalType": "bool",
              "name": "sent",
              "type": "bool"
            }
          ],
          "internalType": "struct Wallet.Transfer[]",
          "name": "",
          "type": "tuple[]"
        }
      ],
      "stateMutability": "view",
      "type": "function",
      "constant": true
    },
    {
      "inputs": [
        {
          "internalType": "uint256",
          "name": "amount",
          "type": "uint256"
        },
        {
          "internalType": "address payable",
          "name": "to",
          "type": "address"
        }
      ],
      "name": "createTransaction",
      "outputs": [],
      "stateMutability": "nonpayable",
      "type": "function"
    },
    {
      "inputs": [
        {
          "internalType": "uint256",
          "name": "id",
          "type": "uint256"
        }
      ],
      "name": "approveTransfer",
      "outputs": [],
      "stateMutability": "nonpayable",
      "type": "function"
    }
  ],
  "bytecode": "0x60806040523480156200001157600080fd5b506040516200161f3803806200161f83398181016040528101906200003791906200037d565b80825110156200007e576040517f08c379a0000000000000000000000000000000000000000000000000000000008152600401620000759062000444565b60405180910390fd5b816000908051906020019062000096929190620000a6565b5080600281905550505062000466565b82805482825590600052602060002090810192821562000122579160200282015b82811115620001215782518260006101000a81548173ffffffffffffffffffffffffffffffffffffffff021916908373ffffffffffffffffffffffffffffffffffffffff16021790555091602001919060010190620000c7565b5b50905062000131919062000135565b5090565b5b808211156200015057600081600090555060010162000136565b5090565b6000604051905090565b600080fd5b600080fd5b600080fd5b6000601f19601f8301169050919050565b7f4e487b7100000000000000000000000000000000000000000000000000000000600052604160045260246000fd5b620001b8826200016d565b810181811067ffffffffffffffff82111715620001da57620001d96200017e565b5b80604052505050565b6000620001ef62000154565b9050620001fd8282620001ad565b919050565b600067ffffffffffffffff82111562000220576200021f6200017e565b5b602082029050602081019050919050565b600080fd5b600073ffffffffffffffffffffffffffffffffffffffff82169050919050565b6000620002638262000236565b9050919050565b620002758162000256565b81146200028157600080fd5b50565b60008151905062000295816200026a565b92915050565b6000620002b2620002ac8462000202565b620001e3565b90508083825260208201905060208402830185811115620002d857620002d762000231565b5b835b81811015620003055780620002f0888262000284565b845260208401935050602081019050620002da565b5050509392505050565b600082601f83011262000327576200032662000168565b5b8151620003398482602086016200029b565b91505092915050565b6000819050919050565b620003578162000342565b81146200036357600080fd5b50565b60008151905062000377816200034c565b92915050565b600080604083850312156200039757620003966200015e565b5b600083015167ffffffffffffffff811115620003b857620003b762000163565b5b620003c6858286016200030f565b9250506020620003d98582860162000366565b9150509250929050565b600082825260208201905092915050565b7f71756f72756d2073686f756c64206265203c3d20617070726f76657273000000600082015250565b60006200042c601d83620003e3565b91506200043982620003f4565b602082019050919050565b600060208201905081810360008301526200045f816200041d565b9050919050565b6111a980620004766000396000f3fe60806040526004361061008a5760003560e01c80638894dd2b116100595780638894dd2b146101595780639377d71114610163578063cacca4a0146101a4578063d3650fb8146101cd578063ffabc6731461020a576100aa565b80631703a018146100af5780632f65142c146100da5780636cb3e8ef146101055780637cf4c54314610130576100aa565b366100aa5734600160008282546100a19190610a12565b92505081905550005b600080fd5b3480156100bb57600080fd5b506100c4610247565b6040516100d19190610a77565b60405180910390f35b3480156100e657600080fd5b506100ef61024d565b6040516100fc9190610c14565b60405180910390f35b34801561011157600080fd5b5061011a61033b565b6040516101279190610d06565b60405180910390f35b34801561013c57600080fd5b5061015760048036038101906101529190610d85565b6103c9565b005b6101616105a8565b005b34801561016f57600080fd5b5061018a60048036038101906101859190610dc5565b6105c3565b60405161019b959493929190610e10565b60405180910390f35b3480156101b057600080fd5b506101cb60048036038101906101c69190610dc5565b610636565b005b3480156101d957600080fd5b506101f460048036038101906101ef9190610dc5565b61096b565b6040516102019190610e72565b60405180910390f35b34801561021657600080fd5b50610231600480360381019061022c9190610eb9565b6109aa565b60405161023e9190610ef9565b60405180910390f35b60025481565b60606003805480602002602001604051908101604052809291908181526020016000905b8282101561033257838290600052602060002090600502016040518060a001604052908160008201548152602001600182015481526020016002820160009054906101000a900473ffffffffffffffffffffffffffffffffffffffff1673ffffffffffffffffffffffffffffffffffffffff1673ffffffffffffffffffffffffffffffffffffffff168152602001600382015481526020016004820160009054906101000a900460ff16151515158152505081526020019060010190610271565b50505050905090565b606060008054806020026020016040519081016040528092919081815260200182805480156103bf57602002820191906000526020600020905b8160009054906101000a900473ffffffffffffffffffffffffffffffffffffffff1673ffffffffffffffffffffffffffffffffffffffff1681526020019060010190808311610375575b5050505050905090565b600080600090505b60008054905081101561046a573373ffffffffffffffffffffffffffffffffffffffff166000828154811061040957610408610f14565b5b9060005260206000200160009054906101000a900473ffffffffffffffffffffffffffffffffffffffff1673ffffffffffffffffffffffffffffffffffffffff161415610459576001915061046a565b8061046390610f43565b90506103d1565b50806104ab576040517f08c379a00000000000000000000000000000000000000000000000000000000081526004016104a29061100f565b60405180910390fd5b60036040518060a0016040528060038054905081526020018581526020018473ffffffffffffffffffffffffffffffffffffffff16815260200160008152602001600015158152509080600181540180825580915050600190039060005260206000209060050201600090919091909150600082015181600001556020820151816001015560408201518160020160006101000a81548173ffffffffffffffffffffffffffffffffffffffff021916908373ffffffffffffffffffffffffffffffffffffffff1602179055506060820151816003015560808201518160040160006101000a81548160ff0219169083151502179055505050505050565b34600160008282546105ba9190610a12565b92505081905550565b600381815481106105d357600080fd5b90600052602060002090600502016000915090508060000154908060010154908060020160009054906101000a900473ffffffffffffffffffffffffffffffffffffffff16908060030154908060040160009054906101000a900460ff16905085565b600380549050811061067d576040517f08c379a00000000000000000000000000000000000000000000000000000000081526004016106749061107b565b60405180910390fd5b600015156003828154811061069557610694610f14565b5b906000526020600020906005020160040160009054906101000a900460ff161515146106f6576040517f08c379a00000000000000000000000000000000000000000000000000000000081526004016106ed906110e7565b60405180910390fd5b60001515600460003373ffffffffffffffffffffffffffffffffffffffff1673ffffffffffffffffffffffffffffffffffffffff168152602001908152602001600020600083815260200190815260200160002060009054906101000a900460ff1615151461079a576040517f08c379a000000000000000000000000000000000000000000000000000000000815260040161079190611153565b60405180910390fd5b6001600460003373ffffffffffffffffffffffffffffffffffffffff1673ffffffffffffffffffffffffffffffffffffffff168152602001908152602001600020600083815260200190815260200160002060006101000a81548160ff0219169083151502179055506003818154811061081757610816610f14565b5b9060005260206000209060050201600301600081548092919061083990610f43565b91905055506002546003828154811061085557610854610f14565b5b906000526020600020906005020160030154106109685760016003828154811061088257610881610f14565b5b906000526020600020906005020160040160006101000a81548160ff0219169083151502179055506000600382815481106108c0576108bf610f14565b5b906000526020600020906005020160020160009054906101000a900473ffffffffffffffffffffffffffffffffffffffff16905060006003838154811061090a57610909610f14565b5b90600052602060002090600502016001015490508173ffffffffffffffffffffffffffffffffffffffff166108fc829081150290604051600060405180830381858888f19350505050158015610964573d6000803e3d6000fd5b5050505b50565b6000818154811061097b57600080fd5b906000526020600020016000915054906101000a900473ffffffffffffffffffffffffffffffffffffffff1681565b60046020528160005260406000206020528060005260406000206000915091509054906101000a900460ff1681565b6000819050919050565b7f4e487b7100000000000000000000000000000000000000000000000000000000600052601160045260246000fd5b6000610a1d826109d9565b9150610a28836109d9565b9250827fffffffffffffffffffffffffffffffffffffffffffffffffffffffffffffffff03821115610a5d57610a5c6109e3565b5b828201905092915050565b610a71816109d9565b82525050565b6000602082019050610a8c6000830184610a68565b92915050565b600081519050919050565b600082825260208201905092915050565b6000819050602082019050919050565b610ac7816109d9565b82525050565b600073ffffffffffffffffffffffffffffffffffffffff82169050919050565b6000610af882610acd565b9050919050565b610b0881610aed565b82525050565b60008115159050919050565b610b2381610b0e565b82525050565b60a082016000820151610b3f6000850182610abe565b506020820151610b526020850182610abe565b506040820151610b656040850182610aff565b506060820151610b786060850182610abe565b506080820151610b8b6080850182610b1a565b50505050565b6000610b9d8383610b29565b60a08301905092915050565b6000602082019050919050565b6000610bc182610a92565b610bcb8185610a9d565b9350610bd683610aae565b8060005b83811015610c07578151610bee8882610b91565b9750610bf983610ba9565b925050600181019050610bda565b5085935050505092915050565b60006020820190508181036000830152610c2e8184610bb6565b905092915050565b600081519050919050565b600082825260208201905092915050565b6000819050602082019050919050565b6000610c6d82610acd565b9050919050565b610c7d81610c62565b82525050565b6000610c8f8383610c74565b60208301905092915050565b6000602082019050919050565b6000610cb382610c36565b610cbd8185610c41565b9350610cc883610c52565b8060005b83811015610cf9578151610ce08882610c83565b9750610ceb83610c9b565b925050600181019050610ccc565b5085935050505092915050565b60006020820190508181036000830152610d208184610ca8565b905092915050565b600080fd5b610d36816109d9565b8114610d4157600080fd5b50565b600081359050610d5381610d2d565b92915050565b610d6281610aed565b8114610d6d57600080fd5b50565b600081359050610d7f81610d59565b92915050565b60008060408385031215610d9c57610d9b610d28565b5b6000610daa85828601610d44565b9250506020610dbb85828601610d70565b9150509250929050565b600060208284031215610ddb57610dda610d28565b5b6000610de984828501610d44565b91505092915050565b610dfb81610aed565b82525050565b610e0a81610b0e565b82525050565b600060a082019050610e256000830188610a68565b610e326020830187610a68565b610e3f6040830186610df2565b610e4c6060830185610a68565b610e596080830184610e01565b9695505050505050565b610e6c81610c62565b82525050565b6000602082019050610e876000830184610e63565b92915050565b610e9681610c62565b8114610ea157600080fd5b50565b600081359050610eb381610e8d565b92915050565b60008060408385031215610ed057610ecf610d28565b5b6000610ede85828601610ea4565b9250506020610eef85828601610d44565b9150509250929050565b6000602082019050610f0e6000830184610e01565b92915050565b7f4e487b7100000000000000000000000000000000000000000000000000000000600052603260045260246000fd5b6000610f4e826109d9565b91507fffffffffffffffffffffffffffffffffffffffffffffffffffffffffffffffff821415610f8157610f806109e3565b5b600182019050919050565b600082825260208201905092915050565b7f6f6e6c7920617070726f766572732063616e2063616c6c20746869732066756e60008201527f6374696f6e000000000000000000000000000000000000000000000000000000602082015250565b6000610ff9602583610f8c565b915061100482610f9d565b604082019050919050565b6000602082019050818103600083015261102881610fec565b9050919050565b7f6e6f207472616e73666572207769746820746869732049442065786973747300600082015250565b6000611065601f83610f8c565b91506110708261102f565b602082019050919050565b6000602082019050818103600083015261109481611058565b9050919050565b7f7472616e736665722068617320616c7265616479206265656e2073656e740000600082015250565b60006110d1601e83610f8c565b91506110dc8261109b565b602082019050919050565b60006020820190508181036000830152611100816110c4565b9050919050565b7f63616e6e6f7420617070726f7665207472616e73616374696f6e207477696365600082015250565b600061113d602083610f8c565b915061114882611107565b602082019050919050565b6000602082019050818103600083015261116c81611130565b905091905056fea2646970667358221220b1b179e1bb9bede977b1691c5adb0892e1ff85bfbad981e4b9b42f47e7f7316864736f6c634300080b0033",
  "immutableReferences": {},
  "source": "// SPDX-License-Identifier: MIT\r\npragma solidity ^0.8.0;\r\n\r\ncontract Wallet{\r\n    address[] public approvers;\r\n    uint Balance;\r\n    uint public quorum;\r\n    struct Transfer{\r\n        uint id;\r\n        uint amount;\r\n        address payable to;\r\n        uint approvals;\r\n        bool sent;\r\n    }\r\n    // mapping(uint=>Transfer)public transfers;\r\n    // uint transfers_size;\r\n    Transfer[] public transfers;\r\n    mapping(address => mapping(uint=>bool))public approvals;\r\n\r\n    constructor(address[] memory _approvers, uint _quorum) {\r\n        require(_approvers.length >= _quorum, \"quorum should be <= approvers\");\r\n        approvers = _approvers;\r\n        quorum = _quorum;\r\n    }\r\n\r\n    receive() external payable {\r\n        Balance += msg.value;\r\n    }\r\n\r\n    function addEther() external payable{\r\n        Balance += msg.value;\r\n    }\r\n\r\n    function getApprovers() external view returns(address[] memory){\r\n        return approvers;\r\n    }\r\n\r\n    function getTransfers() external view returns(Transfer[] memory){\r\n        return transfers;\r\n    }\r\n\r\n    function createTransaction(uint amount, address payable to)external onlyApprovers{\r\n        transfers.push(Transfer(\r\n            transfers.length,\r\n            amount,\r\n            to,\r\n            0,\r\n            false\r\n        ));\r\n    }\r\n\r\n    function approveTransfer(uint id) external {\r\n        require(id < transfers.length, \"no transfer with this ID exists\");\r\n        require(transfers[id].sent == false,\r\n        \"transfer has already been sent\");\r\n        require(approvals[msg.sender][id] == false, \r\n        \"cannot approve transaction twice\");\r\n\r\n        approvals[msg.sender][id] = true;\r\n        transfers[id].approvals++;\r\n\r\n        if(transfers[id].approvals >= quorum) {\r\n            transfers[id].sent = true;\r\n            address payable to = transfers[id].to;\r\n            uint amount = transfers[id].amount;\r\n            to.transfer(amount);\r\n        }\r\n    }\r\n\r\n    modifier onlyApprovers{\r\n        bool present;\r\n        for(uint i = 0 ; i<approvers.length ; ++i){\r\n            if(approvers[i] == msg.sender){\r\n                present = true; break;\r\n            }\r\n        }\r\n        require(present, \"only approvers can call this function\");\r\n        _;\r\n    }\r\n\r\n}",
  "sourcePath": "C:\\Users\\pidmi\\OneDrive\\Desktop\\smart_contracts\\proj1\\contracts\\wallet.sol",
  "compiler": {
    "name": "solc",
    "version": "0.8.11+commit.d7f03943.Emscripten.clang"
  },
  "schemaVersion": "3.4.4",
  "updatedAt": "2022-06-05T22:52:53.159Z",
  "networkType": "ethereum",
  "devdoc": {
    "kind": "dev",
    "methods": {},
    "version": 1
  },
  "userdoc": {
    "kind": "user",
    "methods": {},
    "version": 1
  }
}